{
  "_format": "hh-sol-artifact-1",
  "contractName": "BuyMyRoom",
  "sourceName": "contracts/BuyMyRoom.sol",
  "abi": [
    {
      "inputs": [],
      "stateMutability": "nonpayable",
      "type": "constructor"
    },
    {
      "inputs": [
        {
          "internalType": "address",
          "name": "sender",
          "type": "address"
        },
        {
          "internalType": "uint256",
          "name": "tokenId",
          "type": "uint256"
        },
        {
          "internalType": "address",
          "name": "owner",
          "type": "address"
        }
      ],
      "name": "ERC721IncorrectOwner",
      "type": "error"
    },
    {
      "inputs": [
        {
          "internalType": "address",
          "name": "operator",
          "type": "address"
        },
        {
          "internalType": "uint256",
          "name": "tokenId",
          "type": "uint256"
        }
      ],
      "name": "ERC721InsufficientApproval",
      "type": "error"
    },
    {
      "inputs": [
        {
          "internalType": "address",
          "name": "approver",
          "type": "address"
        }
      ],
      "name": "ERC721InvalidApprover",
      "type": "error"
    },
    {
      "inputs": [
        {
          "internalType": "address",
          "name": "operator",
          "type": "address"
        }
      ],
      "name": "ERC721InvalidOperator",
      "type": "error"
    },
    {
      "inputs": [
        {
          "internalType": "address",
          "name": "owner",
          "type": "address"
        }
      ],
      "name": "ERC721InvalidOwner",
      "type": "error"
    },
    {
      "inputs": [
        {
          "internalType": "address",
          "name": "receiver",
          "type": "address"
        }
      ],
      "name": "ERC721InvalidReceiver",
      "type": "error"
    },
    {
      "inputs": [
        {
          "internalType": "address",
          "name": "sender",
          "type": "address"
        }
      ],
      "name": "ERC721InvalidSender",
      "type": "error"
    },
    {
      "inputs": [
        {
          "internalType": "uint256",
          "name": "tokenId",
          "type": "uint256"
        }
      ],
      "name": "ERC721NonexistentToken",
      "type": "error"
    },
    {
      "anonymous": false,
      "inputs": [
        {
          "indexed": true,
          "internalType": "address",
          "name": "owner",
          "type": "address"
        },
        {
          "indexed": true,
          "internalType": "address",
          "name": "approved",
          "type": "address"
        },
        {
          "indexed": true,
          "internalType": "uint256",
          "name": "tokenId",
          "type": "uint256"
        }
      ],
      "name": "Approval",
      "type": "event"
    },
    {
      "anonymous": false,
      "inputs": [
        {
          "indexed": true,
          "internalType": "address",
          "name": "owner",
          "type": "address"
        },
        {
          "indexed": true,
          "internalType": "address",
          "name": "operator",
          "type": "address"
        },
        {
          "indexed": false,
          "internalType": "bool",
          "name": "approved",
          "type": "bool"
        }
      ],
      "name": "ApprovalForAll",
      "type": "event"
    },
    {
      "anonymous": false,
      "inputs": [
        {
          "indexed": false,
          "internalType": "uint256",
          "name": "tokenId",
          "type": "uint256"
        },
        {
          "indexed": false,
          "internalType": "address",
          "name": "owner",
          "type": "address"
        }
      ],
      "name": "HouseDelist",
      "type": "event"
    },
    {
      "anonymous": false,
      "inputs": [
        {
          "indexed": false,
          "internalType": "uint256",
          "name": "tokenId",
          "type": "uint256"
        },
        {
          "indexed": false,
          "internalType": "uint256",
          "name": "price",
          "type": "uint256"
        },
        {
          "indexed": false,
          "internalType": "address",
          "name": "owner",
          "type": "address"
        }
      ],
      "name": "HouseList",
      "type": "event"
    },
    {
      "anonymous": false,
      "inputs": [
        {
          "indexed": false,
          "internalType": "uint256",
          "name": "tokenId",
          "type": "uint256"
        },
        {
          "indexed": false,
          "internalType": "uint256",
          "name": "price",
          "type": "uint256"
        },
        {
          "indexed": false,
          "internalType": "address",
          "name": "seller",
          "type": "address"
        },
        {
          "indexed": false,
          "internalType": "address",
          "name": "buyer",
          "type": "address"
        }
      ],
      "name": "HouseSell",
      "type": "event"
    },
    {
      "anonymous": false,
      "inputs": [
        {
          "indexed": true,
          "internalType": "address",
          "name": "from",
          "type": "address"
        },
        {
          "indexed": true,
          "internalType": "address",
          "name": "to",
          "type": "address"
        },
        {
          "indexed": true,
          "internalType": "uint256",
          "name": "tokenId",
          "type": "uint256"
        }
      ],
      "name": "Transfer",
      "type": "event"
    },
    {
      "inputs": [
        {
          "internalType": "address",
          "name": "to",
          "type": "address"
        },
        {
          "internalType": "uint256",
          "name": "tokenId",
          "type": "uint256"
        }
      ],
      "name": "approve",
      "outputs": [],
      "stateMutability": "nonpayable",
      "type": "function"
    },
    {
      "inputs": [
        {
          "internalType": "address",
          "name": "owner",
          "type": "address"
        }
      ],
      "name": "balanceOf",
      "outputs": [
        {
          "internalType": "uint256",
          "name": "",
          "type": "uint256"
        }
      ],
      "stateMutability": "view",
      "type": "function"
    },
    {
      "inputs": [
        {
          "internalType": "uint256",
          "name": "tokenId",
          "type": "uint256"
        }
      ],
      "name": "buyHouse",
      "outputs": [],
      "stateMutability": "payable",
      "type": "function"
    },
    {
      "inputs": [
        {
          "internalType": "uint256",
          "name": "tokenId",
          "type": "uint256"
        }
      ],
      "name": "buyHouseWithPoint",
      "outputs": [],
      "stateMutability": "nonpayable",
      "type": "function"
    },
    {
      "inputs": [
        {
          "internalType": "address",
          "name": "owner",
          "type": "address"
        }
      ],
      "name": "createHouse",
      "outputs": [
        {
          "internalType": "uint256",
          "name": "",
          "type": "uint256"
        }
      ],
      "stateMutability": "nonpayable",
      "type": "function"
    },
    {
      "inputs": [
        {
          "internalType": "uint256",
          "name": "tokenId",
          "type": "uint256"
        }
      ],
      "name": "delistHouse",
      "outputs": [],
      "stateMutability": "nonpayable",
      "type": "function"
    },
    {
      "inputs": [],
      "name": "ercPoint",
      "outputs": [
        {
          "internalType": "contract ERCPoint",
          "name": "",
          "type": "address"
        }
      ],
      "stateMutability": "view",
      "type": "function"
    },
    {
      "inputs": [
        {
          "internalType": "uint256",
          "name": "tokenId",
          "type": "uint256"
        }
      ],
      "name": "getApproved",
      "outputs": [
        {
          "internalType": "address",
          "name": "",
          "type": "address"
        }
      ],
      "stateMutability": "view",
      "type": "function"
    },
    {
      "inputs": [],
      "name": "getHousesListed",
      "outputs": [
        {
          "components": [
            {
              "internalType": "uint256",
              "name": "tokenId",
              "type": "uint256"
            },
            {
              "internalType": "address",
              "name": "owner",
              "type": "address"
            },
            {
              "internalType": "bool",
              "name": "isListed",
              "type": "bool"
            },
            {
              "internalType": "uint256",
              "name": "listedTimestamp",
              "type": "uint256"
            },
            {
              "internalType": "uint256",
              "name": "price",
              "type": "uint256"
            }
          ],
          "internalType": "struct BuyMyRoom.House[]",
          "name": "",
          "type": "tuple[]"
        }
      ],
      "stateMutability": "view",
      "type": "function"
    },
    {
      "inputs": [],
      "name": "getMyHouses",
      "outputs": [
        {
          "components": [
            {
              "internalType": "uint256",
              "name": "tokenId",
              "type": "uint256"
            },
            {
              "internalType": "address",
              "name": "owner",
              "type": "address"
            },
            {
              "internalType": "bool",
              "name": "isListed",
              "type": "bool"
            },
            {
              "internalType": "uint256",
              "name": "listedTimestamp",
              "type": "uint256"
            },
            {
              "internalType": "uint256",
              "name": "price",
              "type": "uint256"
            }
          ],
          "internalType": "struct BuyMyRoom.House[]",
          "name": "",
          "type": "tuple[]"
        }
      ],
      "stateMutability": "view",
      "type": "function"
    },
    {
      "inputs": [],
      "name": "helloworld",
      "outputs": [
        {
          "internalType": "string",
          "name": "",
          "type": "string"
        }
      ],
      "stateMutability": "pure",
      "type": "function"
    },
    {
      "inputs": [
        {
          "internalType": "uint256",
          "name": "",
          "type": "uint256"
        }
      ],
      "name": "houses",
      "outputs": [
        {
          "internalType": "uint256",
          "name": "tokenId",
          "type": "uint256"
        },
        {
          "internalType": "address",
          "name": "owner",
          "type": "address"
        },
        {
          "internalType": "bool",
          "name": "isListed",
          "type": "bool"
        },
        {
          "internalType": "uint256",
          "name": "listedTimestamp",
          "type": "uint256"
        },
        {
          "internalType": "uint256",
          "name": "price",
          "type": "uint256"
        }
      ],
      "stateMutability": "view",
      "type": "function"
    },
    {
      "inputs": [
        {
          "internalType": "address",
          "name": "owner",
          "type": "address"
        },
        {
          "internalType": "address",
          "name": "operator",
          "type": "address"
        }
      ],
      "name": "isApprovedForAll",
      "outputs": [
        {
          "internalType": "bool",
          "name": "",
          "type": "bool"
        }
      ],
      "stateMutability": "view",
      "type": "function"
    },
    {
      "inputs": [
        {
          "internalType": "uint256",
          "name": "tokenId",
          "type": "uint256"
        },
        {
          "internalType": "uint256",
          "name": "price",
          "type": "uint256"
        }
      ],
      "name": "listHouse",
      "outputs": [],
      "stateMutability": "nonpayable",
      "type": "function"
    },
    {
      "inputs": [],
      "name": "name",
      "outputs": [
        {
          "internalType": "string",
          "name": "",
          "type": "string"
        }
      ],
      "stateMutability": "view",
      "type": "function"
    },
    {
      "inputs": [
        {
          "internalType": "uint256",
          "name": "tokenId",
          "type": "uint256"
        }
      ],
      "name": "ownerOf",
      "outputs": [
        {
          "internalType": "address",
          "name": "",
          "type": "address"
        }
      ],
      "stateMutability": "view",
      "type": "function"
    },
    {
      "inputs": [
        {
          "internalType": "address",
          "name": "from",
          "type": "address"
        },
        {
          "internalType": "address",
          "name": "to",
          "type": "address"
        },
        {
          "internalType": "uint256",
          "name": "tokenId",
          "type": "uint256"
        }
      ],
      "name": "safeTransferFrom",
      "outputs": [],
      "stateMutability": "nonpayable",
      "type": "function"
    },
    {
      "inputs": [
        {
          "internalType": "address",
          "name": "from",
          "type": "address"
        },
        {
          "internalType": "address",
          "name": "to",
          "type": "address"
        },
        {
          "internalType": "uint256",
          "name": "tokenId",
          "type": "uint256"
        },
        {
          "internalType": "bytes",
          "name": "data",
          "type": "bytes"
        }
      ],
      "name": "safeTransferFrom",
      "outputs": [],
      "stateMutability": "nonpayable",
      "type": "function"
    },
    {
      "inputs": [
        {
          "internalType": "address",
          "name": "operator",
          "type": "address"
        },
        {
          "internalType": "bool",
          "name": "approved",
          "type": "bool"
        }
      ],
      "name": "setApprovalForAll",
      "outputs": [],
      "stateMutability": "nonpayable",
      "type": "function"
    },
    {
      "inputs": [
        {
          "internalType": "bytes4",
          "name": "interfaceId",
          "type": "bytes4"
        }
      ],
      "name": "supportsInterface",
      "outputs": [
        {
          "internalType": "bool",
          "name": "",
          "type": "bool"
        }
      ],
      "stateMutability": "view",
      "type": "function"
    },
    {
      "inputs": [],
      "name": "symbol",
      "outputs": [
        {
          "internalType": "string",
          "name": "",
          "type": "string"
        }
      ],
      "stateMutability": "view",
      "type": "function"
    },
    {
      "inputs": [
        {
          "internalType": "uint256",
          "name": "tokenId",
          "type": "uint256"
        }
      ],
      "name": "tokenURI",
      "outputs": [
        {
          "internalType": "string",
          "name": "",
          "type": "string"
        }
      ],
      "stateMutability": "view",
      "type": "function"
    },
    {
      "inputs": [
        {
          "internalType": "address",
          "name": "from",
          "type": "address"
        },
        {
          "internalType": "address",
          "name": "to",
          "type": "address"
        },
        {
          "internalType": "uint256",
          "name": "tokenId",
          "type": "uint256"
        }
      ],
      "name": "transferFrom",
      "outputs": [],
      "stateMutability": "nonpayable",
      "type": "function"
    }
  ],
  "bytecode": "0x6080604052600060075560016009553480156200001b57600080fd5b506040518060400160405280600981526020017f4275794d79526f6f6d00000000000000000000000000000000000000000000008152506040518060400160405280600481526020017f42594d52000000000000000000000000000000000000000000000000000000008152508160009081620000999190620003e9565b508060019081620000ab9190620003e9565b50505033600660006101000a81548173ffffffffffffffffffffffffffffffffffffffff021916908373ffffffffffffffffffffffffffffffffffffffff160217905550604051620000fd9062000161565b604051809103906000f0801580156200011a573d6000803e3d6000fd5b50600a60006101000a81548173ffffffffffffffffffffffffffffffffffffffff021916908373ffffffffffffffffffffffffffffffffffffffff160217905550620004d0565b6116a28062003c5483390190565b600081519050919050565b7f4e487b7100000000000000000000000000000000000000000000000000000000600052604160045260246000fd5b7f4e487b7100000000000000000000000000000000000000000000000000000000600052602260045260246000fd5b60006002820490506001821680620001f157607f821691505b602082108103620002075762000206620001a9565b5b50919050565b60008190508160005260206000209050919050565b60006020601f8301049050919050565b600082821b905092915050565b600060088302620002717fffffffffffffffffffffffffffffffffffffffffffffffffffffffffffffffff8262000232565b6200027d868362000232565b95508019841693508086168417925050509392505050565b6000819050919050565b6000819050919050565b6000620002ca620002c4620002be8462000295565b6200029f565b62000295565b9050919050565b6000819050919050565b620002e683620002a9565b620002fe620002f582620002d1565b8484546200023f565b825550505050565b600090565b6200031562000306565b62000322818484620002db565b505050565b5b818110156200034a576200033e6000826200030b565b60018101905062000328565b5050565b601f821115620003995762000363816200020d565b6200036e8462000222565b810160208510156200037e578190505b620003966200038d8562000222565b83018262000327565b50505b505050565b600082821c905092915050565b6000620003be600019846008026200039e565b1980831691505092915050565b6000620003d98383620003ab565b9150826002028217905092915050565b620003f4826200016f565b67ffffffffffffffff81111562000410576200040f6200017a565b5b6200041c8254620001d8565b620004298282856200034e565b600060209050601f8311600181146200046157600084156200044c578287015190505b620004588582620003cb565b865550620004c8565b601f19841662000471866200020d565b60005b828110156200049b5784890151825560018201915060208501945060208101905062000474565b86831015620004bb5784890151620004b7601f891682620003ab565b8355505b6001600288020188555050505b505050505050565b61377480620004e06000396000f3fe6080604052600436106101405760003560e01c806395d89b41116100b6578063b88d4fde1161006f578063b88d4fde14610484578063c87b56dd146104ad578063cc25e970146104ea578063d83fe09514610515578063e985e9c51461053e578063eddc42691461057b57610140565b806395d89b411461037057806399b231781461039b578063a22cb465146103c4578063aeda852f146103ed578063b14f1afd1461042e578063b67878bb1461045957610140565b806323b872dd1161010857806323b872dd146102505780632f2f4859146102795780633c3b0b4a146102a457806342842e0e146102cd5780636352211e146102f657806370a082311461033357610140565b806301ffc9a71461014557806306fdde0314610182578063081812fc146101ad578063095ea7b3146101ea57806320bc312814610213575b600080fd5b34801561015157600080fd5b5061016c600480360381019061016791906129e2565b610597565b6040516101799190612a2a565b60405180910390f35b34801561018e57600080fd5b50610197610679565b6040516101a49190612ad5565b60405180910390f35b3480156101b957600080fd5b506101d460048036038101906101cf9190612b2d565b61070b565b6040516101e19190612b9b565b60405180910390f35b3480156101f657600080fd5b50610211600480360381019061020c9190612be2565b610727565b005b34801561021f57600080fd5b5061023a60048036038101906102359190612c22565b61073d565b6040516102479190612c5e565b60405180910390f35b34801561025c57600080fd5b5061027760048036038101906102729190612c79565b6108da565b005b34801561028557600080fd5b5061028e6109dc565b60405161029b9190612ad5565b60405180910390f35b3480156102b057600080fd5b506102cb60048036038101906102c69190612b2d565b610a19565b005b3480156102d957600080fd5b506102f460048036038101906102ef9190612c79565b610b60565b005b34801561030257600080fd5b5061031d60048036038101906103189190612b2d565b610b80565b60405161032a9190612b9b565b60405180910390f35b34801561033f57600080fd5b5061035a60048036038101906103559190612c22565b610b92565b6040516103679190612c5e565b60405180910390f35b34801561037c57600080fd5b50610385610c4c565b6040516103929190612ad5565b60405180910390f35b3480156103a757600080fd5b506103c260048036038101906103bd9190612ccc565b610cde565b005b3480156103d057600080fd5b506103eb60048036038101906103e69190612d38565b610e26565b005b3480156103f957600080fd5b50610414600480360381019061040f9190612b2d565b610e3c565b604051610425959493929190612d78565b60405180910390f35b34801561043a57600080fd5b50610443610e9f565b6040516104509190612f0f565b60405180910390f35b34801561046557600080fd5b5061046e61112c565b60405161047b9190612f0f565b60405180910390f35b34801561049057600080fd5b506104ab60048036038101906104a69190613066565b611339565b005b3480156104b957600080fd5b506104d460048036038101906104cf9190612b2d565b611356565b6040516104e19190612ad5565b60405180910390f35b3480156104f657600080fd5b506104ff6113bf565b60405161050c9190613148565b60405180910390f35b34801561052157600080fd5b5061053c60048036038101906105379190612b2d565b6113e5565b005b34801561054a57600080fd5b5061056560048036038101906105609190613163565b611715565b6040516105729190612a2a565b60405180910390f35b61059560048036038101906105909190612b2d565b6117a9565b005b60007f80ac58cd000000000000000000000000000000000000000000000000000000007bffffffffffffffffffffffffffffffffffffffffffffffffffffffff1916827bffffffffffffffffffffffffffffffffffffffffffffffffffffffff1916148061066257507f5b5e139f000000000000000000000000000000000000000000000000000000007bffffffffffffffffffffffffffffffffffffffffffffffffffffffff1916827bffffffffffffffffffffffffffffffffffffffffffffffffffffffff1916145b80610672575061067182611a47565b5b9050919050565b606060008054610688906131d2565b80601f01602080910402602001604051908101604052809291908181526020018280546106b4906131d2565b80156107015780601f106106d657610100808354040283529160200191610701565b820191906000526020600020905b8154815290600101906020018083116106e457829003601f168201915b5050505050905090565b600061071682611ab1565b5061072082611b39565b9050919050565b6107398282610734611b76565b611b7e565b5050565b60003373ffffffffffffffffffffffffffffffffffffffff16600660009054906101000a900473ffffffffffffffffffffffffffffffffffffffff1673ffffffffffffffffffffffffffffffffffffffff16146107cf576040517f08c379a00000000000000000000000000000000000000000000000000000000081526004016107c69061324f565b60405180910390fd5b6000600760008154809291906107e49061329e565b9190505590506107f48382611b90565b6040518060a001604052808281526020018473ffffffffffffffffffffffffffffffffffffffff168152602001600015158152602001600081526020016000815250600860008381526020019081526020016000206000820151816000015560208201518160010160006101000a81548173ffffffffffffffffffffffffffffffffffffffff021916908373ffffffffffffffffffffffffffffffffffffffff16021790555060408201518160010160146101000a81548160ff021916908315150217905550606082015181600201556080820151816003015590505080915050919050565b600073ffffffffffffffffffffffffffffffffffffffff168273ffffffffffffffffffffffffffffffffffffffff160361094c5760006040517f64a0ae920000000000000000000000000000000000000000000000000000000081526004016109439190612b9b565b60405180910390fd5b6000610960838361095b611b76565b611bae565b90508373ffffffffffffffffffffffffffffffffffffffff168173ffffffffffffffffffffffffffffffffffffffff16146109d6578382826040517f64283d7b0000000000000000000000000000000000000000000000000000000081526004016109cd939291906132e6565b60405180910390fd5b50505050565b60606040518060400160405280600b81526020017f68656c6c6f20776f726c64000000000000000000000000000000000000000000815250905090565b3373ffffffffffffffffffffffffffffffffffffffff166008600083815260200190815260200160002060010160009054906101000a900473ffffffffffffffffffffffffffffffffffffffff1673ffffffffffffffffffffffffffffffffffffffff1614610abd576040517f08c379a0000000000000000000000000000000000000000000000000000000008152600401610ab49061338f565b60405180910390fd5b6000600860008381526020019081526020016000206003018190555060006008600083815260200190815260200160002060010160146101000a81548160ff021916908315150217905550600060086000838152602001908152602001600020600201819055507f7a45aab82100ed76ddfa1a786c9a380e8cfd8ba090c5ee57080127aabe243af18133604051610b559291906133af565b60405180910390a150565b610b7b83838360405180602001604052806000815250611339565b505050565b6000610b8b82611ab1565b9050919050565b60008073ffffffffffffffffffffffffffffffffffffffff168273ffffffffffffffffffffffffffffffffffffffff1603610c055760006040517f89c62b64000000000000000000000000000000000000000000000000000000008152600401610bfc9190612b9b565b60405180910390fd5b600360008373ffffffffffffffffffffffffffffffffffffffff1673ffffffffffffffffffffffffffffffffffffffff168152602001908152602001600020549050919050565b606060018054610c5b906131d2565b80601f0160208091040260200160405190810160405280929190818152602001828054610c87906131d2565b8015610cd45780601f10610ca957610100808354040283529160200191610cd4565b820191906000526020600020905b815481529060010190602001808311610cb757829003601f168201915b5050505050905090565b3373ffffffffffffffffffffffffffffffffffffffff166008600084815260200190815260200160002060010160009054906101000a900473ffffffffffffffffffffffffffffffffffffffff1673ffffffffffffffffffffffffffffffffffffffff1614610d82576040517f08c379a0000000000000000000000000000000000000000000000000000000008152600401610d799061338f565b60405180910390fd5b80600860008481526020019081526020016000206003018190555060016008600084815260200190815260200160002060010160146101000a81548160ff0219169083151502179055504260086000848152602001908152602001600020600201819055507f88d30ba98d994265a418ab2a3d572e073d1a33d74c3ad4a0da06412b8b39b9ad828233604051610e1a939291906133d8565b60405180910390a15050565b610e38610e31611b76565b8383611dc8565b5050565b60086020528060005260406000206000915090508060000154908060010160009054906101000a900473ffffffffffffffffffffffffffffffffffffffff16908060010160149054906101000a900460ff16908060020154908060030154905085565b60606000805b600754811015610f3a573373ffffffffffffffffffffffffffffffffffffffff166008600083815260200190815260200160002060010160009054906101000a900473ffffffffffffffffffffffffffffffffffffffff1673ffffffffffffffffffffffffffffffffffffffff1603610f27578180610f239061329e565b9250505b8080610f329061329e565b915050610ea5565b506000808267ffffffffffffffff811115610f5857610f57612f3b565b5b604051908082528060200260200182016040528015610f9157816020015b610f7e61292f565b815260200190600190039081610f765790505b50905060005b600754811015611122573373ffffffffffffffffffffffffffffffffffffffff166008600083815260200190815260200160002060010160009054906101000a900473ffffffffffffffffffffffffffffffffffffffff1673ffffffffffffffffffffffffffffffffffffffff160361110f576040518060a00160405280600860008481526020019081526020016000206000015481526020016008600084815260200190815260200160002060010160009054906101000a900473ffffffffffffffffffffffffffffffffffffffff1673ffffffffffffffffffffffffffffffffffffffff1681526020016008600084815260200190815260200160002060010160149054906101000a900460ff16151581526020016008600084815260200190815260200160002060020154815260200160086000848152602001908152602001600020600301548152508284806110f09061329e565b9550815181106111035761110261340f565b5b60200260200101819052505b808061111a9061329e565b915050610f97565b5080935050505090565b60606000805b600754811015611187576008600082815260200190815260200160002060010160149054906101000a900460ff16156111745781806111709061329e565b9250505b808061117f9061329e565b915050611132565b506000808267ffffffffffffffff8111156111a5576111a4612f3b565b5b6040519080825280602002602001820160405280156111de57816020015b6111cb61292f565b8152602001906001900390816111c35790505b50905060005b60075481101561132f576008600082815260200190815260200160002060010160149054906101000a900460ff161561131c576040518060a00160405280600860008481526020019081526020016000206000015481526020016008600084815260200190815260200160002060010160009054906101000a900473ffffffffffffffffffffffffffffffffffffffff1673ffffffffffffffffffffffffffffffffffffffff1681526020016008600084815260200190815260200160002060010160149054906101000a900460ff16151581526020016008600084815260200190815260200160002060020154815260200160086000848152602001908152602001600020600301548152508284806112fd9061329e565b9550815181106113105761130f61340f565b5b60200260200101819052505b80806113279061329e565b9150506111e4565b5080935050505090565b6113448484846108da565b61135084848484611f37565b50505050565b606061136182611ab1565b50600061136c6120ee565b9050600081511161138c57604051806020016040528060008152506113b7565b8061139684612105565b6040516020016113a792919061347a565b6040516020818303038152906040525b915050919050565b600a60009054906101000a900473ffffffffffffffffffffffffffffffffffffffff1681565b60006008600083815260200190815260200160002060030154905060006008600084815260200190815260200160002060010160009054906101000a900473ffffffffffffffffffffffffffffffffffffffff16905060006103e883600954600860008881526020019081526020016000206002015442611466919061349e565b61147091906134d2565b61147a91906134d2565b6114849190613543565b905082811115611492578290505b600081846114a0919061349e565b90506114ad8333876121d3565b600a60009054906101000a900473ffffffffffffffffffffffffffffffffffffffff1673ffffffffffffffffffffffffffffffffffffffff166323b872dd3385846040518463ffffffff1660e01b815260040161150c93929190613574565b6020604051808303816000875af115801561152b573d6000803e3d6000fd5b505050506040513d601f19601f8201168201806040525081019061154f91906135c0565b50600a60009054906101000a900473ffffffffffffffffffffffffffffffffffffffff1673ffffffffffffffffffffffffffffffffffffffff166323b872dd33600660009054906101000a900473ffffffffffffffffffffffffffffffffffffffff16856040518463ffffffff1660e01b81526004016115d193929190613574565b6020604051808303816000875af11580156115f0573d6000803e3d6000fd5b505050506040513d601f19601f8201168201806040525081019061161491906135c0565b50336008600087815260200190815260200160002060010160006101000a81548173ffffffffffffffffffffffffffffffffffffffff021916908373ffffffffffffffffffffffffffffffffffffffff16021790555060006008600087815260200190815260200160002060010160146101000a81548160ff02191690831515021790555060006008600087815260200190815260200160002060020181905550600060086000878152602001908152602001600020600301819055507f515b6b0792eee5a98a7d8ffcc7852b6cdb5f431ee6707c6576bf9367bb5139e58585853360405161170694939291906135ed565b60405180910390a15050505050565b6000600560008473ffffffffffffffffffffffffffffffffffffffff1673ffffffffffffffffffffffffffffffffffffffff16815260200190815260200160002060008373ffffffffffffffffffffffffffffffffffffffff1673ffffffffffffffffffffffffffffffffffffffff16815260200190815260200160002060009054906101000a900460ff16905092915050565b60006008600083815260200190815260200160002060030154905060006008600084815260200190815260200160002060010160009054906101000a900473ffffffffffffffffffffffffffffffffffffffff16905060006103e88360095460086000888152602001908152602001600020600201544261182a919061349e565b61183491906134d2565b61183e91906134d2565b6118489190613543565b905082811115611856578290505b60008184611864919061349e565b90506118718333876121d3565b8273ffffffffffffffffffffffffffffffffffffffff166108fc670de0b6b3a76400008361189f91906134d2565b9081150290604051600060405180830381858888f193505050501580156118ca573d6000803e3d6000fd5b50600660009054906101000a900473ffffffffffffffffffffffffffffffffffffffff1673ffffffffffffffffffffffffffffffffffffffff166108fc670de0b6b3a76400008461191b91906134d2565b9081150290604051600060405180830381858888f19350505050158015611946573d6000803e3d6000fd5b50336008600087815260200190815260200160002060010160006101000a81548173ffffffffffffffffffffffffffffffffffffffff021916908373ffffffffffffffffffffffffffffffffffffffff16021790555060006008600087815260200190815260200160002060010160146101000a81548160ff02191690831515021790555060006008600087815260200190815260200160002060020181905550600060086000878152602001908152602001600020600301819055507f515b6b0792eee5a98a7d8ffcc7852b6cdb5f431ee6707c6576bf9367bb5139e585858533604051611a3894939291906135ed565b60405180910390a15050505050565b60007f01ffc9a7000000000000000000000000000000000000000000000000000000007bffffffffffffffffffffffffffffffffffffffffffffffffffffffff1916827bffffffffffffffffffffffffffffffffffffffffffffffffffffffff1916149050919050565b600080611abd83612340565b9050600073ffffffffffffffffffffffffffffffffffffffff168173ffffffffffffffffffffffffffffffffffffffff1603611b3057826040517f7e273289000000000000000000000000000000000000000000000000000000008152600401611b279190612c5e565b60405180910390fd5b80915050919050565b60006004600083815260200190815260200160002060009054906101000a900473ffffffffffffffffffffffffffffffffffffffff169050919050565b600033905090565b611b8b838383600161237d565b505050565b611baa828260405180602001604052806000815250612542565b5050565b600080611bba84612340565b9050600073ffffffffffffffffffffffffffffffffffffffff168373ffffffffffffffffffffffffffffffffffffffff1614611bfc57611bfb81848661255e565b5b600073ffffffffffffffffffffffffffffffffffffffff168173ffffffffffffffffffffffffffffffffffffffff1614611c8d57611c3e60008560008061237d565b6001600360008373ffffffffffffffffffffffffffffffffffffffff1673ffffffffffffffffffffffffffffffffffffffff168152602001908152602001600020600082825403925050819055505b600073ffffffffffffffffffffffffffffffffffffffff168573ffffffffffffffffffffffffffffffffffffffff1614611d10576001600360008773ffffffffffffffffffffffffffffffffffffffff1673ffffffffffffffffffffffffffffffffffffffff168152602001908152602001600020600082825401925050819055505b846002600086815260200190815260200160002060006101000a81548173ffffffffffffffffffffffffffffffffffffffff021916908373ffffffffffffffffffffffffffffffffffffffff160217905550838573ffffffffffffffffffffffffffffffffffffffff168273ffffffffffffffffffffffffffffffffffffffff167fddf252ad1be2c89b69c2b068fc378daa952ba7f163c4a11628f55a4df523b3ef60405160405180910390a4809150509392505050565b600073ffffffffffffffffffffffffffffffffffffffff168273ffffffffffffffffffffffffffffffffffffffff1603611e3957816040517f5b08ba18000000000000000000000000000000000000000000000000000000008152600401611e309190612b9b565b60405180910390fd5b80600560008573ffffffffffffffffffffffffffffffffffffffff1673ffffffffffffffffffffffffffffffffffffffff16815260200190815260200160002060008473ffffffffffffffffffffffffffffffffffffffff1673ffffffffffffffffffffffffffffffffffffffff16815260200190815260200160002060006101000a81548160ff0219169083151502179055508173ffffffffffffffffffffffffffffffffffffffff168373ffffffffffffffffffffffffffffffffffffffff167f17307eab39ab6107e8899845ad3d59bd9653f200f220920489ca2b5937696c3183604051611f2a9190612a2a565b60405180910390a3505050565b60008373ffffffffffffffffffffffffffffffffffffffff163b11156120e8578273ffffffffffffffffffffffffffffffffffffffff1663150b7a02611f7b611b76565b8685856040518563ffffffff1660e01b8152600401611f9d9493929190613687565b6020604051808303816000875af1925050508015611fd957506040513d601f19601f82011682018060405250810190611fd691906136e8565b60015b61205d573d8060008114612009576040519150601f19603f3d011682016040523d82523d6000602084013e61200e565b606091505b50600081510361205557836040517f64a0ae9200000000000000000000000000000000000000000000000000000000815260040161204c9190612b9b565b60405180910390fd5b805181602001fd5b63150b7a0260e01b7bffffffffffffffffffffffffffffffffffffffffffffffffffffffff1916817bffffffffffffffffffffffffffffffffffffffffffffffffffffffff1916146120e657836040517f64a0ae920000000000000000000000000000000000000000000000000000000081526004016120dd9190612b9b565b60405180910390fd5b505b50505050565b606060405180602001604052806000815250905090565b60606000600161211484612622565b01905060008167ffffffffffffffff81111561213357612132612f3b565b5b6040519080825280601f01601f1916602001820160405280156121655781602001600182028036833780820191505090505b509050600082602001820190505b6001156121c8578080600190039150507f3031323334353637383961626364656600000000000000000000000000000000600a86061a8153600a85816121bc576121bb613514565b5b04945060008503612173575b819350505050919050565b600073ffffffffffffffffffffffffffffffffffffffff168273ffffffffffffffffffffffffffffffffffffffff16036122455760006040517f64a0ae9200000000000000000000000000000000000000000000000000000000815260040161223c9190612b9b565b60405180910390fd5b600061225383836000611bae565b9050600073ffffffffffffffffffffffffffffffffffffffff168173ffffffffffffffffffffffffffffffffffffffff16036122c657816040517f7e2732890000000000000000000000000000000000000000000000000000000081526004016122bd9190612c5e565b60405180910390fd5b8373ffffffffffffffffffffffffffffffffffffffff168173ffffffffffffffffffffffffffffffffffffffff161461233a578382826040517f64283d7b000000000000000000000000000000000000000000000000000000008152600401612331939291906132e6565b60405180910390fd5b50505050565b60006002600083815260200190815260200160002060009054906101000a900473ffffffffffffffffffffffffffffffffffffffff169050919050565b80806123b65750600073ffffffffffffffffffffffffffffffffffffffff168273ffffffffffffffffffffffffffffffffffffffff1614155b156124ea5760006123c684611ab1565b9050600073ffffffffffffffffffffffffffffffffffffffff168373ffffffffffffffffffffffffffffffffffffffff161415801561243157508273ffffffffffffffffffffffffffffffffffffffff168173ffffffffffffffffffffffffffffffffffffffff1614155b801561244457506124428184611715565b155b1561248657826040517fa9fbf51f00000000000000000000000000000000000000000000000000000000815260040161247d9190612b9b565b60405180910390fd5b81156124e857838573ffffffffffffffffffffffffffffffffffffffff168273ffffffffffffffffffffffffffffffffffffffff167f8c5be1e5ebec7d5bd14f71427d1e84f3dd0314c0f7b2291e5b200ac8c7c3b92560405160405180910390a45b505b836004600085815260200190815260200160002060006101000a81548173ffffffffffffffffffffffffffffffffffffffff021916908373ffffffffffffffffffffffffffffffffffffffff16021790555050505050565b61254c8383612775565b6125596000848484611f37565b505050565b61256983838361286e565b61261d57600073ffffffffffffffffffffffffffffffffffffffff168373ffffffffffffffffffffffffffffffffffffffff16036125de57806040517f7e2732890000000000000000000000000000000000000000000000000000000081526004016125d59190612c5e565b60405180910390fd5b81816040517f177e802f000000000000000000000000000000000000000000000000000000008152600401612614929190613715565b60405180910390fd5b505050565b600080600090507a184f03e93ff9f4daa797ed6e38ed64bf6a1f0100000000000000008310612680577a184f03e93ff9f4daa797ed6e38ed64bf6a1f010000000000000000838161267657612675613514565b5b0492506040810190505b6d04ee2d6d415b85acef810000000083106126bd576d04ee2d6d415b85acef810000000083816126b3576126b2613514565b5b0492506020810190505b662386f26fc1000083106126ec57662386f26fc1000083816126e2576126e1613514565b5b0492506010810190505b6305f5e1008310612715576305f5e100838161270b5761270a613514565b5b0492506008810190505b612710831061273a5761271083816127305761272f613514565b5b0492506004810190505b6064831061275d576064838161275357612752613514565b5b0492506002810190505b600a831061276c576001810190505b80915050919050565b600073ffffffffffffffffffffffffffffffffffffffff168273ffffffffffffffffffffffffffffffffffffffff16036127e75760006040517f64a0ae920000000000000000000000000000000000000000000000000000000081526004016127de9190612b9b565b60405180910390fd5b60006127f583836000611bae565b9050600073ffffffffffffffffffffffffffffffffffffffff168173ffffffffffffffffffffffffffffffffffffffff16146128695760006040517f73c6ac6e0000000000000000000000000000000000000000000000000000000081526004016128609190612b9b565b60405180910390fd5b505050565b60008073ffffffffffffffffffffffffffffffffffffffff168373ffffffffffffffffffffffffffffffffffffffff161415801561292657508273ffffffffffffffffffffffffffffffffffffffff168473ffffffffffffffffffffffffffffffffffffffff1614806128e757506128e68484611715565b5b8061292557508273ffffffffffffffffffffffffffffffffffffffff1661290d83611b39565b73ffffffffffffffffffffffffffffffffffffffff16145b5b90509392505050565b6040518060a0016040528060008152602001600073ffffffffffffffffffffffffffffffffffffffff16815260200160001515815260200160008152602001600081525090565b6000604051905090565b600080fd5b600080fd5b60007fffffffff0000000000000000000000000000000000000000000000000000000082169050919050565b6129bf8161298a565b81146129ca57600080fd5b50565b6000813590506129dc816129b6565b92915050565b6000602082840312156129f8576129f7612980565b5b6000612a06848285016129cd565b91505092915050565b60008115159050919050565b612a2481612a0f565b82525050565b6000602082019050612a3f6000830184612a1b565b92915050565b600081519050919050565b600082825260208201905092915050565b60005b83811015612a7f578082015181840152602081019050612a64565b60008484015250505050565b6000601f19601f8301169050919050565b6000612aa782612a45565b612ab18185612a50565b9350612ac1818560208601612a61565b612aca81612a8b565b840191505092915050565b60006020820190508181036000830152612aef8184612a9c565b905092915050565b6000819050919050565b612b0a81612af7565b8114612b1557600080fd5b50565b600081359050612b2781612b01565b92915050565b600060208284031215612b4357612b42612980565b5b6000612b5184828501612b18565b91505092915050565b600073ffffffffffffffffffffffffffffffffffffffff82169050919050565b6000612b8582612b5a565b9050919050565b612b9581612b7a565b82525050565b6000602082019050612bb06000830184612b8c565b92915050565b612bbf81612b7a565b8114612bca57600080fd5b50565b600081359050612bdc81612bb6565b92915050565b60008060408385031215612bf957612bf8612980565b5b6000612c0785828601612bcd565b9250506020612c1885828601612b18565b9150509250929050565b600060208284031215612c3857612c37612980565b5b6000612c4684828501612bcd565b91505092915050565b612c5881612af7565b82525050565b6000602082019050612c736000830184612c4f565b92915050565b600080600060608486031215612c9257612c91612980565b5b6000612ca086828701612bcd565b9350506020612cb186828701612bcd565b9250506040612cc286828701612b18565b9150509250925092565b60008060408385031215612ce357612ce2612980565b5b6000612cf185828601612b18565b9250506020612d0285828601612b18565b9150509250929050565b612d1581612a0f565b8114612d2057600080fd5b50565b600081359050612d3281612d0c565b92915050565b60008060408385031215612d4f57612d4e612980565b5b6000612d5d85828601612bcd565b9250506020612d6e85828601612d23565b9150509250929050565b600060a082019050612d8d6000830188612c4f565b612d9a6020830187612b8c565b612da76040830186612a1b565b612db46060830185612c4f565b612dc16080830184612c4f565b9695505050505050565b600081519050919050565b600082825260208201905092915050565b6000819050602082019050919050565b612e0081612af7565b82525050565b612e0f81612b7a565b82525050565b612e1e81612a0f565b82525050565b60a082016000820151612e3a6000850182612df7565b506020820151612e4d6020850182612e06565b506040820151612e606040850182612e15565b506060820151612e736060850182612df7565b506080820151612e866080850182612df7565b50505050565b6000612e988383612e24565b60a08301905092915050565b6000602082019050919050565b6000612ebc82612dcb565b612ec68185612dd6565b9350612ed183612de7565b8060005b83811015612f02578151612ee98882612e8c565b9750612ef483612ea4565b925050600181019050612ed5565b5085935050505092915050565b60006020820190508181036000830152612f298184612eb1565b905092915050565b600080fd5b600080fd5b7f4e487b7100000000000000000000000000000000000000000000000000000000600052604160045260246000fd5b612f7382612a8b565b810181811067ffffffffffffffff82111715612f9257612f91612f3b565b5b80604052505050565b6000612fa5612976565b9050612fb18282612f6a565b919050565b600067ffffffffffffffff821115612fd157612fd0612f3b565b5b612fda82612a8b565b9050602081019050919050565b82818337600083830152505050565b600061300961300484612fb6565b612f9b565b90508281526020810184848401111561302557613024612f36565b5b613030848285612fe7565b509392505050565b600082601f83011261304d5761304c612f31565b5b813561305d848260208601612ff6565b91505092915050565b600080600080608085870312156130805761307f612980565b5b600061308e87828801612bcd565b945050602061309f87828801612bcd565b93505060406130b087828801612b18565b925050606085013567ffffffffffffffff8111156130d1576130d0612985565b5b6130dd87828801613038565b91505092959194509250565b6000819050919050565b600061310e61310961310484612b5a565b6130e9565b612b5a565b9050919050565b6000613120826130f3565b9050919050565b600061313282613115565b9050919050565b61314281613127565b82525050565b600060208201905061315d6000830184613139565b92915050565b6000806040838503121561317a57613179612980565b5b600061318885828601612bcd565b925050602061319985828601612bcd565b9150509250929050565b7f4e487b7100000000000000000000000000000000000000000000000000000000600052602260045260246000fd5b600060028204905060018216806131ea57607f821691505b6020821081036131fd576131fc6131a3565b5b50919050565b7f496e76616c6964206f776e657220616464726573730000000000000000000000600082015250565b6000613239601583612a50565b915061324482613203565b602082019050919050565b600060208201905081810360008301526132688161322c565b9050919050565b7f4e487b7100000000000000000000000000000000000000000000000000000000600052601160045260246000fd5b60006132a982612af7565b91507fffffffffffffffffffffffffffffffffffffffffffffffffffffffffffffffff82036132db576132da61326f565b5b600182019050919050565b60006060820190506132fb6000830186612b8c565b6133086020830185612c4f565b6133156040830184612b8c565b949350505050565b7f596f7520617265206e6f7420746865206f776e6572206f66207468697320686f60008201527f7573650000000000000000000000000000000000000000000000000000000000602082015250565b6000613379602383612a50565b91506133848261331d565b604082019050919050565b600060208201905081810360008301526133a88161336c565b9050919050565b60006040820190506133c46000830185612c4f565b6133d16020830184612b8c565b9392505050565b60006060820190506133ed6000830186612c4f565b6133fa6020830185612c4f565b6134076040830184612b8c565b949350505050565b7f4e487b7100000000000000000000000000000000000000000000000000000000600052603260045260246000fd5b600081905092915050565b600061345482612a45565b61345e818561343e565b935061346e818560208601612a61565b80840191505092915050565b60006134868285613449565b91506134928284613449565b91508190509392505050565b60006134a982612af7565b91506134b483612af7565b92508282039050818111156134cc576134cb61326f565b5b92915050565b60006134dd82612af7565b91506134e883612af7565b92508282026134f681612af7565b9150828204841483151761350d5761350c61326f565b5b5092915050565b7f4e487b7100000000000000000000000000000000000000000000000000000000600052601260045260246000fd5b600061354e82612af7565b915061355983612af7565b92508261356957613568613514565b5b828204905092915050565b60006060820190506135896000830186612b8c565b6135966020830185612b8c565b6135a36040830184612c4f565b949350505050565b6000815190506135ba81612d0c565b92915050565b6000602082840312156135d6576135d5612980565b5b60006135e4848285016135ab565b91505092915050565b60006080820190506136026000830187612c4f565b61360f6020830186612c4f565b61361c6040830185612b8c565b6136296060830184612b8c565b95945050505050565b600081519050919050565b600082825260208201905092915050565b600061365982613632565b613663818561363d565b9350613673818560208601612a61565b61367c81612a8b565b840191505092915050565b600060808201905061369c6000830187612b8c565b6136a96020830186612b8c565b6136b66040830185612c4f565b81810360608301526136c8818461364e565b905095945050505050565b6000815190506136e2816129b6565b92915050565b6000602082840312156136fe576136fd612980565b5b600061370c848285016136d3565b91505092915050565b600060408201905061372a6000830185612b8c565b6137376020830184612c4f565b939250505056fea2646970667358221220b27f456402846555e4595c45024020b639c5f383c621fc2fe9d7ec61acc6f64464736f6c6343000814003360806040523480156200001157600080fd5b506040518060400160405280600881526020017f455243506f696e740000000000000000000000000000000000000000000000008152506040518060400160405280600381526020017f455054000000000000000000000000000000000000000000000000000000000081525081600390816200008f919062000365565b508060049081620000a1919062000365565b50505033600560006101000a81548173ffffffffffffffffffffffffffffffffffffffff021916908373ffffffffffffffffffffffffffffffffffffffff1602179055506200044c565b600081519050919050565b7f4e487b7100000000000000000000000000000000000000000000000000000000600052604160045260246000fd5b7f4e487b7100000000000000000000000000000000000000000000000000000000600052602260045260246000fd5b600060028204905060018216806200016d57607f821691505b60208210810362000183576200018262000125565b5b50919050565b60008190508160005260206000209050919050565b60006020601f8301049050919050565b600082821b905092915050565b600060088302620001ed7fffffffffffffffffffffffffffffffffffffffffffffffffffffffffffffffff82620001ae565b620001f98683620001ae565b95508019841693508086168417925050509392505050565b6000819050919050565b6000819050919050565b600062000246620002406200023a8462000211565b6200021b565b62000211565b9050919050565b6000819050919050565b620002628362000225565b6200027a62000271826200024d565b848454620001bb565b825550505050565b600090565b6200029162000282565b6200029e81848462000257565b505050565b5b81811015620002c657620002ba60008262000287565b600181019050620002a4565b5050565b601f8211156200031557620002df8162000189565b620002ea846200019e565b81016020851015620002fa578190505b6200031262000309856200019e565b830182620002a3565b50505b505050565b600082821c905092915050565b60006200033a600019846008026200031a565b1980831691505092915050565b600062000355838362000327565b9150826002028217905092915050565b6200037082620000eb565b67ffffffffffffffff8111156200038c576200038b620000f6565b5b62000398825462000154565b620003a5828285620002ca565b600060209050601f831160018114620003dd5760008415620003c8578287015190505b620003d4858262000347565b86555062000444565b601f198416620003ed8662000189565b60005b828110156200041757848901518255600182019150602085019450602081019050620003f0565b8683101562000437578489015162000433601f89168262000327565b8355505b6001600288020188555050505b505050505050565b611246806200045c6000396000f3fe6080604052600436106100a75760003560e01c806370a082311161006457806370a08231146101d057806395d89b411461020d578063a9059cbb14610238578063ba9c463714610275578063dd62ed3e146102a0578063ee16a7e6146102dd576100a7565b806306fdde03146100ac578063095ea7b3146100d757806318160ddd1461011457806321b01e571461013f57806323b872dd14610168578063313ce567146101a5575b600080fd5b3480156100b857600080fd5b506100c16102e7565b6040516100ce9190610da2565b60405180910390f35b3480156100e357600080fd5b506100fe60048036038101906100f99190610e5d565b610379565b60405161010b9190610eb8565b60405180910390f35b34801561012057600080fd5b5061012961039c565b6040516101369190610ee2565b60405180910390f35b34801561014b57600080fd5b5061016660048036038101906101619190610efd565b6103a6565b005b34801561017457600080fd5b5061018f600480360381019061018a9190610f2a565b610446565b60405161019c9190610eb8565b60405180910390f35b3480156101b157600080fd5b506101ba610475565b6040516101c79190610f99565b60405180910390f35b3480156101dc57600080fd5b506101f760048036038101906101f29190610fb4565b61047e565b6040516102049190610ee2565b60405180910390f35b34801561021957600080fd5b506102226104c6565b60405161022f9190610da2565b60405180910390f35b34801561024457600080fd5b5061025f600480360381019061025a9190610e5d565b610558565b60405161026c9190610eb8565b60405180910390f35b34801561028157600080fd5b5061028a61057b565b6040516102979190610ee2565b60405180910390f35b3480156102ac57600080fd5b506102c760048036038101906102c29190610fe1565b61058b565b6040516102d49190610ee2565b60405180910390f35b6102e5610612565b005b6060600380546102f690611050565b80601f016020809104026020016040519081016040528092919081815260200182805461032290611050565b801561036f5780601f106103445761010080835404028352916020019161036f565b820191906000526020600020905b81548152906001019060200180831161035257829003601f168201915b5050505050905090565b600080610384610670565b9050610391818585610678565b600191505092915050565b6000600254905090565b6103b0338261068a565b3373ffffffffffffffffffffffffffffffffffffffff166108fc670de0b6b3a7640000836103de91906110b0565b9081150290604051600060405180830381858888f19350505050158015610409573d6000803e3d6000fd5b507f550acca041a653e46b44f19babb7c79170c663fba893e9bed8d14d5102662802338260405161043b929190611101565b60405180910390a150565b600080610451610670565b905061045e85828561070c565b6104698585856107a0565b60019150509392505050565b60006012905090565b60008060008373ffffffffffffffffffffffffffffffffffffffff1673ffffffffffffffffffffffffffffffffffffffff168152602001908152602001600020549050919050565b6060600480546104d590611050565b80601f016020809104026020016040519081016040528092919081815260200182805461050190611050565b801561054e5780601f106105235761010080835404028352916020019161054e565b820191906000526020600020905b81548152906001019060200180831161053157829003601f168201915b5050505050905090565b600080610563610670565b90506105708185856107a0565b600191505092915050565b60006105863361047e565b905090565b6000600160008473ffffffffffffffffffffffffffffffffffffffff1673ffffffffffffffffffffffffffffffffffffffff16815260200190815260200160002060008373ffffffffffffffffffffffffffffffffffffffff1673ffffffffffffffffffffffffffffffffffffffff16815260200190815260200160002054905092915050565b6000670de0b6b3a7640000346106289190611159565b90506106343382610894565b7fe0a1f9be8a2379331dbd8cce589f2c4106f5ae3ede102ef1ed9766aa980d8ec23382604051610665929190611101565b60405180910390a150565b600033905090565b6106858383836001610916565b505050565b600073ffffffffffffffffffffffffffffffffffffffff168273ffffffffffffffffffffffffffffffffffffffff16036106fc5760006040517f96c6fd1e0000000000000000000000000000000000000000000000000000000081526004016106f3919061118a565b60405180910390fd5b61070882600083610aed565b5050565b6000610718848461058b565b90507fffffffffffffffffffffffffffffffffffffffffffffffffffffffffffffffff811461079a578181101561078a578281836040517ffb8f41b2000000000000000000000000000000000000000000000000000000008152600401610781939291906111a5565b60405180910390fd5b61079984848484036000610916565b5b50505050565b600073ffffffffffffffffffffffffffffffffffffffff168373ffffffffffffffffffffffffffffffffffffffff16036108125760006040517f96c6fd1e000000000000000000000000000000000000000000000000000000008152600401610809919061118a565b60405180910390fd5b600073ffffffffffffffffffffffffffffffffffffffff168273ffffffffffffffffffffffffffffffffffffffff16036108845760006040517fec442f0500000000000000000000000000000000000000000000000000000000815260040161087b919061118a565b60405180910390fd5b61088f838383610aed565b505050565b600073ffffffffffffffffffffffffffffffffffffffff168273ffffffffffffffffffffffffffffffffffffffff16036109065760006040517fec442f050000000000000000000000000000000000000000000000000000000081526004016108fd919061118a565b60405180910390fd5b61091260008383610aed565b5050565b600073ffffffffffffffffffffffffffffffffffffffff168473ffffffffffffffffffffffffffffffffffffffff16036109885760006040517fe602df0500000000000000000000000000000000000000000000000000000000815260040161097f919061118a565b60405180910390fd5b600073ffffffffffffffffffffffffffffffffffffffff168373ffffffffffffffffffffffffffffffffffffffff16036109fa5760006040517f94280d620000000000000000000000000000000000000000000000000000000081526004016109f1919061118a565b60405180910390fd5b81600160008673ffffffffffffffffffffffffffffffffffffffff1673ffffffffffffffffffffffffffffffffffffffff16815260200190815260200160002060008573ffffffffffffffffffffffffffffffffffffffff1673ffffffffffffffffffffffffffffffffffffffff168152602001908152602001600020819055508015610ae7578273ffffffffffffffffffffffffffffffffffffffff168473ffffffffffffffffffffffffffffffffffffffff167f8c5be1e5ebec7d5bd14f71427d1e84f3dd0314c0f7b2291e5b200ac8c7c3b92584604051610ade9190610ee2565b60405180910390a35b50505050565b600073ffffffffffffffffffffffffffffffffffffffff168373ffffffffffffffffffffffffffffffffffffffff1603610b3f578060026000828254610b3391906111dc565b92505081905550610c12565b60008060008573ffffffffffffffffffffffffffffffffffffffff1673ffffffffffffffffffffffffffffffffffffffff16815260200190815260200160002054905081811015610bcb578381836040517fe450d38c000000000000000000000000000000000000000000000000000000008152600401610bc2939291906111a5565b60405180910390fd5b8181036000808673ffffffffffffffffffffffffffffffffffffffff1673ffffffffffffffffffffffffffffffffffffffff16815260200190815260200160002081905550505b600073ffffffffffffffffffffffffffffffffffffffff168273ffffffffffffffffffffffffffffffffffffffff1603610c5b5780600260008282540392505081905550610ca8565b806000808473ffffffffffffffffffffffffffffffffffffffff1673ffffffffffffffffffffffffffffffffffffffff168152602001908152602001600020600082825401925050819055505b8173ffffffffffffffffffffffffffffffffffffffff168373ffffffffffffffffffffffffffffffffffffffff167fddf252ad1be2c89b69c2b068fc378daa952ba7f163c4a11628f55a4df523b3ef83604051610d059190610ee2565b60405180910390a3505050565b600081519050919050565b600082825260208201905092915050565b60005b83811015610d4c578082015181840152602081019050610d31565b60008484015250505050565b6000601f19601f8301169050919050565b6000610d7482610d12565b610d7e8185610d1d565b9350610d8e818560208601610d2e565b610d9781610d58565b840191505092915050565b60006020820190508181036000830152610dbc8184610d69565b905092915050565b600080fd5b600073ffffffffffffffffffffffffffffffffffffffff82169050919050565b6000610df482610dc9565b9050919050565b610e0481610de9565b8114610e0f57600080fd5b50565b600081359050610e2181610dfb565b92915050565b6000819050919050565b610e3a81610e27565b8114610e4557600080fd5b50565b600081359050610e5781610e31565b92915050565b60008060408385031215610e7457610e73610dc4565b5b6000610e8285828601610e12565b9250506020610e9385828601610e48565b9150509250929050565b60008115159050919050565b610eb281610e9d565b82525050565b6000602082019050610ecd6000830184610ea9565b92915050565b610edc81610e27565b82525050565b6000602082019050610ef76000830184610ed3565b92915050565b600060208284031215610f1357610f12610dc4565b5b6000610f2184828501610e48565b91505092915050565b600080600060608486031215610f4357610f42610dc4565b5b6000610f5186828701610e12565b9350506020610f6286828701610e12565b9250506040610f7386828701610e48565b9150509250925092565b600060ff82169050919050565b610f9381610f7d565b82525050565b6000602082019050610fae6000830184610f8a565b92915050565b600060208284031215610fca57610fc9610dc4565b5b6000610fd884828501610e12565b91505092915050565b60008060408385031215610ff857610ff7610dc4565b5b600061100685828601610e12565b925050602061101785828601610e12565b9150509250929050565b7f4e487b7100000000000000000000000000000000000000000000000000000000600052602260045260246000fd5b6000600282049050600182168061106857607f821691505b60208210810361107b5761107a611021565b5b50919050565b7f4e487b7100000000000000000000000000000000000000000000000000000000600052601160045260246000fd5b60006110bb82610e27565b91506110c683610e27565b92508282026110d481610e27565b915082820484148315176110eb576110ea611081565b5b5092915050565b6110fb81610de9565b82525050565b600060408201905061111660008301856110f2565b6111236020830184610ed3565b9392505050565b7f4e487b7100000000000000000000000000000000000000000000000000000000600052601260045260246000fd5b600061116482610e27565b915061116f83610e27565b92508261117f5761117e61112a565b5b828204905092915050565b600060208201905061119f60008301846110f2565b92915050565b60006060820190506111ba60008301866110f2565b6111c76020830185610ed3565b6111d46040830184610ed3565b949350505050565b60006111e782610e27565b91506111f283610e27565b925082820190508082111561120a57611209611081565b5b9291505056fea264697066735822122033570e8cdfd1231553c22d7ca8adfa422dc1ecbeee5c17104b8b0c12742159ff64736f6c63430008140033",
  "linkReferences": {},
  "deployedLinkReferences": {}
}